:100000000AC011C010C00FC00EC00DC00CC00BC084
:100010000AC009C008C011271FBFCFE5D0E0DEBF6E
:10002000CDBF42D050C0ECCF089809980A9840E460
:100030004EBD49E04DBD4CE050E057BD46BD089572
:100040000A9A1298019BFECF129A0199FECF12983C
:1000500040E150E0019BFECF129A0199FECF129829
:100060004150510B41175107A9F7019BFECF129A3E
:100070000A980895089A029BFECF08980299FECF2D
:10008000089A40E150E0029BFECF08980299FECF0B
:10009000089A4150510B41175107A9F7029BFECF17
:1000A0000898019BFECF0895BFDF5EE048ED0FB7D3
:1000B000F894A8954CBF51BF0FBF019BC1DF029BB5
:0A00C000D9DFA895FACFF894FFCF1E
:00000001FF
